:100000000C9462000C948A000C948A000C948A0070
:100010000C948A000C948A000C948A000C948A0038
:100020000C948A000C948A000C948A000C94DD01D4
:100030000C948A000C948A000C948A000C948A0018
:100040000C9493010C948A000C948A000C948A00FE
:100050000C948A000C948A000C948A000C948A00F8
:100060000C948A000C948A000000000024002700F1
:100070002A0000000000250028002B0000000008D6
:10008000000201000003040700000000000000005F
:1000900000000000230026002900040404040404D6
:1000A0000404020202020202030303030303010227
:1000B00004081020408001020408102001020408F6
:1000C00010201B0411241FBECFEFD8E0DEBFCDBF30
:1000D00011E0A0E0B1E0ECEBFBE002C005900D9276
:1000E000A030B107D9F721E0A0E0B1E001C01D9236
:1000F000A233B207E1F710E0C2E6D0E004C02197D6
:10010000FE010E94D605C136D107C9F70E94DE0262
:100110000C94DC050C9400008F929F92AF92BF92DA
:10012000FF920F931F93CF93DF93F0902F012BE05B
:100130002F1508F44CC02091310108E512E0021B94
:10014000110927FD1395000F111F000F111F20919A
:100150003001C8E8D0E0C21BD10927FDD395CC0FF0
:10016000DD1FCC0FDD1F4E010D2E000CAA08BB08B1
:100170009801012E000C440B550B281939094A0926
:100180005B09DC010E94600424EB30E040E050E0B9
:100190000E943604820E931EA41EB51E8C169D0668
:1001A0002CF0E801801691060CF4E4012297CC0FA4
:1001B000DD1F2FB7F8948F2D90E0FC01EE0FFF1F8D
:1001C000E80FF91FE55FFE4FD283C1832FBFDF9198
:1001D000CF911F910F91FF90BF90AF909F908F9004
:1001E000089590E0FC01E458FF4F2491FC01E25592
:1001F000FF4F3491FC01E656FF4FE491EE23C9F026
:10020000222339F0233001F1A8F4213019F12230F2
:1002100029F1F0E0EE0FFF1FEE58FF4FA591B491CA
:100220008FB7F894EC91611126C030953E233C9332
:100230008FBF08952730A9F02830C9F0243049F73E
:10024000809180008F7D03C0809180008F778093A4
:100250008000DFCF84B58F7784BDDBCF84B58F7D01
:10026000FBCF8091B0008F778093B000D2CF809188
:10027000B0008F7DF9CF3E2BDACFCF93DF9390E0A4
:10028000FC01E255FF4F249186569F4FFC0184915B
:100290008823D1F090E0880F991FFC01E859FF4FA7
:1002A000A591B491FC01EE58FF4FC591D491611115
:1002B0000EC09FB7F8948C91E22FE0958E238C931B
:1002C0002881E223E8839FBFDF91CF9108958FB704
:1002D000F894EC91E22BEC938FBFF6CF3FB7F894F4
:1002E0008091070190910801A0910901B0910A0144
:1002F00026B5A89B05C02F3F19F00196A11DB11D81
:100300003FBFBA2FA92F982F8827BC01CD01620FBC
:10031000711D811D911D42E0660F771F881F991F77
:100320004A95D1F708951F920F920FB60F9211249C
:100330002F933F938F939F93AF93BF93809103012C
:1003400090910401A0910501B09106013091020144
:1003500023E0230F2D3758F50196A11DB11D2093E1
:1003600002018093030190930401A0930501B093CF
:1003700006018091070190910801A0910901B091B7
:100380000A010196A11DB11D8093070190930801F8
:10039000A0930901B0930A01BF91AF919F918F91F2
:1003A0003F912F910F900FBE0F901F90189526E848
:1003B000230F0296A11DB11DD2CF1F920F920FB62F
:1003C0000F9211242F933F934F935F936F937F93DB
:1003D0008F939F93AF93BF93CF93DF93EF93FF934D
:1003E00080910101C0910001D0E087FF24C01092EC
:1003F000850010928400809101018F5F809301013C
:1004000080910101082E000C990B8C179D0724F494
:10041000809101018C30C4F180918400909185001D
:10042000049680349C4908F47AC0809184009091AD
:100430008500049676C080910101082E000C990B6E
:100440008C179D07C4F6E09101018E2FEE0F990BDA
:10045000FC01EE0FFF1FE80FF91FE55FFE4F8081E3
:1004600086FFC9CFE09101018E2FEE0F990BFC01A1
:10047000EE0FFF1FE80FF91FE55FFE4F808160E080
:100480008F730E94F100B7CF2091840030918500D6
:10049000E09101018E2FEE0F990BFC01EE0FFF1F73
:1004A000E80FF91FE55FFE4F81819281820F931F54
:1004B0009093890080938800E09101018E2FEE0FC8
:1004C000990BFC01EE0FFF1FE80FF91FE55FFE4FD0
:1004D000808186FF11C0E09101018E2FEE0F990BF4
:1004E000FC01EE0FFF1FE80FF91FE55FFE4F808153
:1004F00061E08F730E94F100FF91EF91DF91CF9146
:10050000BF91AF919F918F917F916F915F914F912B
:100510003F912F910F900FBE0F901F90189580E480
:100520009CE990938900809388008FEF809301016C
:10053000E3CFCF92DF92EF92FF920F931F93E82FBA
:10054000F92F05C0015011092109310961F190818C
:1005500096239417B9F305C00150110921093109F7
:1005600011F1908196239413F7CFC12CD12CE12C5B
:10057000F12C0AC08FEFC81AD80AE80AF80A0C153D
:100580001D052E053F0579F080818623841791F3A0
:100590006C2D7D2D8E2D9F2D1F910F91FF90EF9033
:1005A000DF90CF90089560E070E080E090E01F91D0
:1005B0000F91FF90EF90DF90CF900895789484B5DD
:1005C000826084BD84B5816084BD85B5826085BD4F
:1005D00085B5816085BD80916E00816080936E00DD
:1005E00010928100809181008260809381008091CF
:1005F0008100816080938100809180008160809380
:1006000080008091B10084608093B1008091B0003F
:1006100081608093B00080917A00846080937A003A
:1006200080917A00826080937A0080917A00816064
:1006300080937A0080917A00806880937A0010928B
:10064000C10061E082E00E943D0160E083E00E9421
:100650003D0180912F018C3008F051C061E087E0AE
:100660000E943D0180912F01282F30E0F901EE0F0B
:10067000FF1FE20FF31FE55FFE4F9081907C9760B4
:10068000908310923001109231012CE0622F0E9471
:10069000CA05829FB001112430E020E0AB01420F77
:1006A000531FFA01EE0FFF1FE40FF51FE55FFE4F2A
:1006B000908196FD16C02F5F3F4F2C30310571F7AA
:1006C00081110FC01092800082E08093810010920F
:1006D000850010928400B19A80916F0082608093AF
:1006E0006F00E0912F018E2F90E0FC01EE0FFF1FB5
:1006F000E80FF91FE55FFE4F80818064808383E00F
:1007000090E00E948C0023E2222E312C3DE3432E08
:1007100034E0532E612C712CC0E0D0E060E082E028
:100720000E94F10083E090E00197F1F761E082E040
:100730000E94F100C1010197F1F760E082E00E94A0
:10074000F100E1EBF0E06491EDE9F0E08491E82F55
:10075000F0E0EE0FFF1FE057FF4F8591949100E40A
:1007600012E42FE030E0462F0E94990261157105D6
:100770008105910529F06F5F7F4F8F4F9F4F9F70CD
:100780000E94D10426E933E44BE05DE30E94350585
:1007900020E030E040E05FE30E9435050E949904CC
:1007A0009B01770F440B550B2A5031094109510920
:1007B000AEE8B1E00E945504A30192010E94360404
:1007C0002E5F3F4F4F4F5F4F2C3331057CF58DE54A
:1007D00090E00E948C000E946E014B015C0188EE4B
:1007E000C82E83E0D82EE12CF12C0E946E016819EE
:1007F00079098A099B09683E734081059105A8F330
:10080000F1E0CF1AD108E108F10828EE820E23E0CA
:10081000921EA11CB11CC114D104E104F10429F7FA
:10082000209709F47BCF0E94000078CF83E090E00E
:100830000E948C00F5CF809100018C3098F491E0FB
:10084000980F9093000180932F0190E0FC01EE0F30
:10085000FF1FE80FF91FE55FFE4F88EB9BE09283D7
:10086000818308958FEF80932F010895052E97FBC4
:100870001EF400940E944D0457FD07D00E946804A6
:1008800007FC03D04EF40C944D04509540953095E0
:1008900021953F4F4F4F5F4F0895909580957095EC
:1008A00061957F4F8F4F9F4F08950E948A04A59FA7
:1008B000900DB49F900DA49F800D911D112408955B
:1008C000B7FF0C9455040E945504821B930B0895A6
:1008D000A1E21A2EAA1BBB1BFD010DC0AA1FBB1F44
:1008E000EE1FFF1FA217B307E407F50720F0A21BB6
:1008F000B30BE40BF50B661F771F881F991F1A9423
:1009000069F760957095809590959B01AC01BD014C
:10091000CF010895A29FB001B39FC001A39F700DA6
:10092000811D1124911DB29F700D811D1124911DF7
:1009300008950E94A0046894B1110C942F050895A5
:100940000E94140588F09F5798F0B92F9927B75146
:10095000B0F0E1F0660F771F881F991F1AF0BA9563
:10096000C9F714C0B13091F00E942E05B1E008958E
:100970000C942E05672F782F8827B85F39F0B93F80
:10098000CCF3869577956795B395D9F73EF4909516
:100990008095709561957F4F8F4F9F4F0895E89494
:1009A00009C097FB3EF490958095709561957F4FB7
:1009B0008F4F9F4F9923A9F0F92F96E9BB27939565
:1009C000F695879577956795B795F111F8CFFAF475
:1009D000BB0F11F460FF1BC06F5F7F4F8F4F9F4FA6
:1009E00016C0882311F096E911C0772321F09EE804
:1009F000872F762F05C0662371F096E8862F70E06A
:100A000060E02AF09A95660F771F881FDAF7880F43
:100A10009695879597F9089557FD9058440F551F5F
:100A200059F05F3F71F04795880F97FB991F61F070
:100A30009F3F79F087950895121613061406551FE7
:100A4000F2CF4695F1DF08C0161617061806991F53
:100A5000F1CF86957105610508940895E894BB2748
:100A600066277727CB0197F908950E9448050C94D3
:100A7000B9050E94AB0538F00E94B20520F095231D
:100A800011F00C94A2050C94A80511240C942F05C8
:100A90000E940C0570F3959FC1F3950F50E0551F10
:100AA000629FF001729FBB27F00DB11D639FAA27C3
:100AB000F00DB11DAA1F649F6627B00DA11D661F12
:100AC000829F2227B00DA11D621F739FB00DA11D33
:100AD000621F839FA00D611D221F749F3327A00DED
:100AE000611D231F849F600D211D822F762F6A2F89
:100AF00011249F5750409AF0F1F088234AF0EE0FEE
:100B0000FF1FBB1F661F771F881F91505040A9F71A
:100B10009E3F510580F00C94A2050C942F055F3F79
:100B2000E4F3983ED4F3869577956795B795F79556
:100B3000E7959F5FC1F7FE2B880F911D96958795CE
:100B400097F9089597F99F6780E870E060E008954D
:100B50009FEF80EC089500240A94161617061806D5
:100B60000906089500240A941216130614060506B1
:100B70000895092E0394000C11F4882352F0BB0F42
:100B800040F4BF2B11F460FF04C06F5F7F4F8F4FA5
:100B90009F4F0895991B79E004C0991F961708F09C
:100BA000961B881F7A95C9F780950895EE0FFF1F51
:0C0BB0000590F491E02D0994F894FFCF1B
:00000001FF
